{
  "contractName": "InNFT",
  "abi": [
    {
      "inputs": [],
      "stateMutability": "nonpayable",
      "type": "constructor"
    },
    {
      "anonymous": false,
      "inputs": [
        {
          "indexed": true,
          "internalType": "address",
          "name": "owner",
          "type": "address"
        },
        {
          "indexed": true,
          "internalType": "address",
          "name": "approved",
          "type": "address"
        },
        {
          "indexed": true,
          "internalType": "uint256",
          "name": "tokenId",
          "type": "uint256"
        }
      ],
      "name": "Approval",
      "type": "event"
    },
    {
      "anonymous": false,
      "inputs": [
        {
          "indexed": true,
          "internalType": "address",
          "name": "owner",
          "type": "address"
        },
        {
          "indexed": true,
          "internalType": "address",
          "name": "operator",
          "type": "address"
        },
        {
          "indexed": false,
          "internalType": "bool",
          "name": "approved",
          "type": "bool"
        }
      ],
      "name": "ApprovalForAll",
      "type": "event"
    },
    {
      "anonymous": false,
      "inputs": [
        {
          "indexed": true,
          "internalType": "address",
          "name": "previousOwner",
          "type": "address"
        },
        {
          "indexed": true,
          "internalType": "address",
          "name": "newOwner",
          "type": "address"
        }
      ],
      "name": "OwnershipTransferred",
      "type": "event"
    },
    {
      "anonymous": false,
      "inputs": [
        {
          "indexed": true,
          "internalType": "address",
          "name": "from",
          "type": "address"
        },
        {
          "indexed": true,
          "internalType": "address",
          "name": "to",
          "type": "address"
        },
        {
          "indexed": true,
          "internalType": "uint256",
          "name": "tokenId",
          "type": "uint256"
        }
      ],
      "name": "Transfer",
      "type": "event"
    },
    {
      "inputs": [
        {
          "internalType": "address",
          "name": "to",
          "type": "address"
        },
        {
          "internalType": "uint256",
          "name": "tokenId",
          "type": "uint256"
        }
      ],
      "name": "approve",
      "outputs": [],
      "stateMutability": "nonpayable",
      "type": "function"
    },
    {
      "inputs": [
        {
          "internalType": "address",
          "name": "owner",
          "type": "address"
        }
      ],
      "name": "balanceOf",
      "outputs": [
        {
          "internalType": "uint256",
          "name": "",
          "type": "uint256"
        }
      ],
      "stateMutability": "view",
      "type": "function",
      "constant": true
    },
    {
      "inputs": [
        {
          "internalType": "uint256",
          "name": "tokenId",
          "type": "uint256"
        }
      ],
      "name": "getApproved",
      "outputs": [
        {
          "internalType": "address",
          "name": "",
          "type": "address"
        }
      ],
      "stateMutability": "view",
      "type": "function",
      "constant": true
    },
    {
      "inputs": [
        {
          "internalType": "address",
          "name": "owner",
          "type": "address"
        },
        {
          "internalType": "address",
          "name": "operator",
          "type": "address"
        }
      ],
      "name": "isApprovedForAll",
      "outputs": [
        {
          "internalType": "bool",
          "name": "",
          "type": "bool"
        }
      ],
      "stateMutability": "view",
      "type": "function",
      "constant": true
    },
    {
      "inputs": [],
      "name": "name",
      "outputs": [
        {
          "internalType": "string",
          "name": "",
          "type": "string"
        }
      ],
      "stateMutability": "view",
      "type": "function",
      "constant": true
    },
    {
      "inputs": [],
      "name": "owner",
      "outputs": [
        {
          "internalType": "address",
          "name": "",
          "type": "address"
        }
      ],
      "stateMutability": "view",
      "type": "function",
      "constant": true
    },
    {
      "inputs": [
        {
          "internalType": "uint256",
          "name": "tokenId",
          "type": "uint256"
        }
      ],
      "name": "ownerOf",
      "outputs": [
        {
          "internalType": "address",
          "name": "",
          "type": "address"
        }
      ],
      "stateMutability": "view",
      "type": "function",
      "constant": true
    },
    {
      "inputs": [],
      "name": "projectOwner",
      "outputs": [
        {
          "internalType": "address",
          "name": "",
          "type": "address"
        }
      ],
      "stateMutability": "view",
      "type": "function",
      "constant": true
    },
    {
      "inputs": [],
      "name": "proxiableUUID",
      "outputs": [
        {
          "internalType": "bytes32",
          "name": "",
          "type": "bytes32"
        }
      ],
      "stateMutability": "pure",
      "type": "function",
      "constant": true
    },
    {
      "inputs": [],
      "name": "renounceOwnership",
      "outputs": [],
      "stateMutability": "nonpayable",
      "type": "function"
    },
    {
      "inputs": [
        {
          "internalType": "address",
          "name": "from",
          "type": "address"
        },
        {
          "internalType": "address",
          "name": "to",
          "type": "address"
        },
        {
          "internalType": "uint256",
          "name": "tokenId",
          "type": "uint256"
        }
      ],
      "name": "safeTransferFrom",
      "outputs": [],
      "stateMutability": "nonpayable",
      "type": "function"
    },
    {
      "inputs": [
        {
          "internalType": "address",
          "name": "from",
          "type": "address"
        },
        {
          "internalType": "address",
          "name": "to",
          "type": "address"
        },
        {
          "internalType": "uint256",
          "name": "tokenId",
          "type": "uint256"
        },
        {
          "internalType": "bytes",
          "name": "data",
          "type": "bytes"
        }
      ],
      "name": "safeTransferFrom",
      "outputs": [],
      "stateMutability": "nonpayable",
      "type": "function"
    },
    {
      "inputs": [
        {
          "internalType": "address",
          "name": "operator",
          "type": "address"
        },
        {
          "internalType": "bool",
          "name": "approved",
          "type": "bool"
        }
      ],
      "name": "setApprovalForAll",
      "outputs": [],
      "stateMutability": "nonpayable",
      "type": "function"
    },
    {
      "inputs": [
        {
          "internalType": "bytes4",
          "name": "interfaceId",
          "type": "bytes4"
        }
      ],
      "name": "supportsInterface",
      "outputs": [
        {
          "internalType": "bool",
          "name": "",
          "type": "bool"
        }
      ],
      "stateMutability": "view",
      "type": "function",
      "constant": true
    },
    {
      "inputs": [],
      "name": "symbol",
      "outputs": [
        {
          "internalType": "string",
          "name": "",
          "type": "string"
        }
      ],
      "stateMutability": "view",
      "type": "function",
      "constant": true
    },
    {
      "inputs": [
        {
          "internalType": "uint256",
          "name": "tokenId",
          "type": "uint256"
        }
      ],
      "name": "tokenURI",
      "outputs": [
        {
          "internalType": "string",
          "name": "",
          "type": "string"
        }
      ],
      "stateMutability": "view",
      "type": "function",
      "constant": true
    },
    {
      "inputs": [
        {
          "internalType": "address",
          "name": "from",
          "type": "address"
        },
        {
          "internalType": "address",
          "name": "to",
          "type": "address"
        },
        {
          "internalType": "uint256",
          "name": "tokenId",
          "type": "uint256"
        }
      ],
      "name": "transferFrom",
      "outputs": [],
      "stateMutability": "nonpayable",
      "type": "function"
    },
    {
      "inputs": [
        {
          "internalType": "address",
          "name": "newOwner",
          "type": "address"
        }
      ],
      "name": "transferOwnership",
      "outputs": [],
      "stateMutability": "nonpayable",
      "type": "function"
    },
    {
      "inputs": [
        {
          "internalType": "address",
          "name": "recipient",
          "type": "address"
        },
        {
          "internalType": "string",
          "name": "tokenURI",
          "type": "string"
        }
      ],
      "name": "mintNFT",
      "outputs": [
        {
          "internalType": "uint256",
          "name": "",
          "type": "uint256"
        }
      ],
      "stateMutability": "nonpayable",
      "type": "function"
    },
    {
      "inputs": [],
      "name": "init",
      "outputs": [],
      "stateMutability": "nonpayable",
      "type": "function"
    },
    {
      "inputs": [
        {
          "internalType": "address",
          "name": "newCode",
          "type": "address"
        }
      ],
      "name": "updateCode",
      "outputs": [],
      "stateMutability": "nonpayable",
      "type": "function"
    }
  ],
  "bytecode": "0x60806040523480156200001157600080fd5b506040518060400160405280600581526020017f496e4e46540000000000000000000000000000000000000000000000000000008152506040518060400160405280600481526020017f494e465400000000000000000000000000000000000000000000000000000000815250816000908051906020019062000096929190620001a6565b508060019080519060200190620000af929190620001a6565b505050620000d2620000c6620000d860201b60201c565b620000e060201b60201c565b620002bb565b600033905090565b6000600760009054906101000a900473ffffffffffffffffffffffffffffffffffffffff16905081600760006101000a81548173ffffffffffffffffffffffffffffffffffffffff021916908373ffffffffffffffffffffffffffffffffffffffff1602179055508173ffffffffffffffffffffffffffffffffffffffff168173ffffffffffffffffffffffffffffffffffffffff167f8be0079c531659141344cd1fd0a4f28419497f9722a3daafe3b4186f6b6457e060405160405180910390a35050565b828054620001b49062000256565b90600052602060002090601f016020900481019282620001d8576000855562000224565b82601f10620001f357805160ff191683800117855562000224565b8280016001018555821562000224579182015b828111156200022357825182559160200191906001019062000206565b5b50905062000233919062000237565b5090565b5b808211156200025257600081600090555060010162000238565b5090565b600060028204905060018216806200026f57607f821691505b602082108114156200028657620002856200028c565b5b50919050565b7f4e487b7100000000000000000000000000000000000000000000000000000000600052602260045260246000fd5b6133e880620002cb6000396000f3fe608060405234801561001057600080fd5b50600436106101375760003560e01c8063715018a6116100b8578063b88d4fde1161007c578063b88d4fde14610328578063c87b56dd14610344578063e1c7392a14610374578063e985e9c51461037e578063eacabe14146103ae578063f2fde38b146103de57610137565b8063715018a6146102a85780638da5cb5b146102b257806395d89b41146102d0578063a22cb465146102ee578063a4475ce41461030a57610137565b806342842e0e116100ff57806342842e0e146101f2578063469519541461020e57806352d1902d1461022a5780636352211e1461024857806370a082311461027857610137565b806301ffc9a71461013c57806306fdde031461016c578063081812fc1461018a578063095ea7b3146101ba57806323b872dd146101d6575b600080fd5b6101566004803603810190610151919061252a565b6103fa565b6040516101639190612962565b60405180910390f35b6101746104dc565b6040516101819190612998565b60405180910390f35b6101a4600480360381019061019f919061257c565b61056e565b6040516101b191906128fb565b60405180910390f35b6101d460048036038101906101cf91906124c5565b6105b4565b005b6101f060048036038101906101eb919061236b565b6106cc565b005b61020c6004803603810190610207919061236b565b61072c565b005b61022860048036038101906102239190612306565b61074c565b005b610232610760565b60405161023f919061297d565b60405180910390f35b610262600480360381019061025d919061257c565b61078b565b60405161026f91906128fb565b60405180910390f35b610292600480360381019061028d9190612306565b610812565b60405161029f9190612bda565b60405180910390f35b6102b06108ca565b005b6102ba6108de565b6040516102c791906128fb565b60405180910390f35b6102d8610908565b6040516102e59190612998565b60405180910390f35b61030860048036038101906103039190612435565b61099a565b005b6103126109b0565b60405161031f91906128fb565b60405180910390f35b610342600480360381019061033d91906123ba565b6109d6565b005b61035e6004803603810190610359919061257c565b610a38565b60405161036b9190612998565b60405180910390f35b61037c610b4b565b005b6103986004803603810190610393919061232f565b610c1f565b6040516103a59190612962565b60405180910390f35b6103c860048036038101906103c39190612471565b610cb3565b6040516103d59190612bda565b60405180910390f35b6103f860048036038101906103f39190612306565b610d83565b005b60007f80ac58cd000000000000000000000000000000000000000000000000000000007bffffffffffffffffffffffffffffffffffffffffffffffffffffffff1916827bffffffffffffffffffffffffffffffffffffffffffffffffffffffff191614806104c557507f5b5e139f000000000000000000000000000000000000000000000000000000007bffffffffffffffffffffffffffffffffffffffffffffffffffffffff1916827bffffffffffffffffffffffffffffffffffffffffffffffffffffffff1916145b806104d557506104d482610e07565b5b9050919050565b6060600080546104eb90612e09565b80601f016020809104026020016040519081016040528092919081815260200182805461051790612e09565b80156105645780601f1061053957610100808354040283529160200191610564565b820191906000526020600020905b81548152906001019060200180831161054757829003601f168201915b5050505050905090565b600061057982610e71565b6004600083815260200190815260200160002060009054906101000a900473ffffffffffffffffffffffffffffffffffffffff169050919050565b60006105bf8261078b565b90508073ffffffffffffffffffffffffffffffffffffffff168373ffffffffffffffffffffffffffffffffffffffff161415610630576040517f08c379a000000000000000000000000000000000000000000000000000000000815260040161062790612b5a565b60405180910390fd5b8073ffffffffffffffffffffffffffffffffffffffff1661064f610ebc565b73ffffffffffffffffffffffffffffffffffffffff16148061067e575061067d81610678610ebc565b610c1f565b5b6106bd576040517f08c379a00000000000000000000000000000000000000000000000000000000081526004016106b490612b7a565b60405180910390fd5b6106c78383610ec4565b505050565b6106dd6106d7610ebc565b82610f7d565b61071c576040517f08c379a0000000000000000000000000000000000000000000000000000000008152600401610713906129ba565b60405180910390fd5b610727838383611012565b505050565b610747838383604051806020016040528060008152506109d6565b505050565b61075461130c565b61075d8161138a565b50565b60007f0ace2c25bb383249161e7ce2b603cc2099f18f7cefd966581720af688cca904560001b905090565b60008061079783611492565b9050600073ffffffffffffffffffffffffffffffffffffffff168173ffffffffffffffffffffffffffffffffffffffff161415610809576040517f08c379a000000000000000000000000000000000000000000000000000000000815260040161080090612b3a565b60405180910390fd5b80915050919050565b60008073ffffffffffffffffffffffffffffffffffffffff168273ffffffffffffffffffffffffffffffffffffffff161415610883576040517f08c379a000000000000000000000000000000000000000000000000000000000815260040161087a90612aba565b60405180910390fd5b600360008373ffffffffffffffffffffffffffffffffffffffff1673ffffffffffffffffffffffffffffffffffffffff168152602001908152602001600020549050919050565b6108d261130c565b6108dc60006114cf565b565b6000600760009054906101000a900473ffffffffffffffffffffffffffffffffffffffff16905090565b60606001805461091790612e09565b80601f016020809104026020016040519081016040528092919081815260200182805461094390612e09565b80156109905780601f1061096557610100808354040283529160200191610990565b820191906000526020600020905b81548152906001019060200180831161097357829003601f168201915b5050505050905090565b6109ac6109a5610ebc565b8383611595565b5050565b600960009054906101000a900473ffffffffffffffffffffffffffffffffffffffff1681565b6109e76109e1610ebc565b83610f7d565b610a26576040517f08c379a0000000000000000000000000000000000000000000000000000000008152600401610a1d906129ba565b60405180910390fd5b610a3284848484611702565b50505050565b6060610a4382610e71565b6000600660008481526020019081526020016000208054610a6390612e09565b80601f0160208091040260200160405190810160405280929190818152602001828054610a8f90612e09565b8015610adc5780601f10610ab157610100808354040283529160200191610adc565b820191906000526020600020905b815481529060010190602001808311610abf57829003601f168201915b505050505090506000610aed61175e565b9050600081511415610b03578192505050610b46565b600082511115610b38578082604051602001610b209291906128d7565b60405160208183030381529060405292505050610b46565b610b4184611775565b925050505b919050565b600073ffffffffffffffffffffffffffffffffffffffff16600960009054906101000a900473ffffffffffffffffffffffffffffffffffffffff1673ffffffffffffffffffffffffffffffffffffffff1614610bdc576040517f08c379a0000000000000000000000000000000000000000000000000000000008152600401610bd390612bba565b60405180910390fd5b33600960006101000a81548173ffffffffffffffffffffffffffffffffffffffff021916908373ffffffffffffffffffffffffffffffffffffffff160217905550565b6000600560008473ffffffffffffffffffffffffffffffffffffffff1673ffffffffffffffffffffffffffffffffffffffff16815260200190815260200160002060008373ffffffffffffffffffffffffffffffffffffffff1673ffffffffffffffffffffffffffffffffffffffff16815260200190815260200160002060009054906101000a900460ff16905092915050565b6000610cbd61130c565b600960009054906101000a900473ffffffffffffffffffffffffffffffffffffffff1673ffffffffffffffffffffffffffffffffffffffff163373ffffffffffffffffffffffffffffffffffffffff1614610d4d576040517f08c379a0000000000000000000000000000000000000000000000000000000008152600401610d4490612b9a565b60405180910390fd5b610d5760086117dd565b6000610d6360086117f3565b9050610d6f8482611801565b610d798184611a1f565b8091505092915050565b610d8b61130c565b600073ffffffffffffffffffffffffffffffffffffffff168173ffffffffffffffffffffffffffffffffffffffff161415610dfb576040517f08c379a0000000000000000000000000000000000000000000000000000000008152600401610df290612a1a565b60405180910390fd5b610e04816114cf565b50565b60007f01ffc9a7000000000000000000000000000000000000000000000000000000007bffffffffffffffffffffffffffffffffffffffffffffffffffffffff1916827bffffffffffffffffffffffffffffffffffffffffffffffffffffffff1916149050919050565b610e7a81611a93565b610eb9576040517f08c379a0000000000000000000000000000000000000000000000000000000008152600401610eb090612b3a565b60405180910390fd5b50565b600033905090565b816004600083815260200190815260200160002060006101000a81548173ffffffffffffffffffffffffffffffffffffffff021916908373ffffffffffffffffffffffffffffffffffffffff160217905550808273ffffffffffffffffffffffffffffffffffffffff16610f378361078b565b73ffffffffffffffffffffffffffffffffffffffff167f8c5be1e5ebec7d5bd14f71427d1e84f3dd0314c0f7b2291e5b200ac8c7c3b92560405160405180910390a45050565b600080610f898361078b565b90508073ffffffffffffffffffffffffffffffffffffffff168473ffffffffffffffffffffffffffffffffffffffff161480610fcb5750610fca8185610c1f565b5b8061100957508373ffffffffffffffffffffffffffffffffffffffff16610ff18461056e565b73ffffffffffffffffffffffffffffffffffffffff16145b91505092915050565b8273ffffffffffffffffffffffffffffffffffffffff166110328261078b565b73ffffffffffffffffffffffffffffffffffffffff1614611088576040517f08c379a000000000000000000000000000000000000000000000000000000000815260040161107f90612a3a565b60405180910390fd5b600073ffffffffffffffffffffffffffffffffffffffff168273ffffffffffffffffffffffffffffffffffffffff1614156110f8576040517f08c379a00000000000000000000000000000000000000000000000000000000081526004016110ef90612a7a565b60405180910390fd5b6111058383836001611ad4565b8273ffffffffffffffffffffffffffffffffffffffff166111258261078b565b73ffffffffffffffffffffffffffffffffffffffff161461117b576040517f08c379a000000000000000000000000000000000000000000000000000000000815260040161117290612a3a565b60405180910390fd5b6004600082815260200190815260200160002060006101000a81549073ffffffffffffffffffffffffffffffffffffffff02191690556001600360008573ffffffffffffffffffffffffffffffffffffffff1673ffffffffffffffffffffffffffffffffffffffff168152602001908152602001600020600082825403925050819055506001600360008473ffffffffffffffffffffffffffffffffffffffff1673ffffffffffffffffffffffffffffffffffffffff16815260200190815260200160002060008282540192505081905550816002600083815260200190815260200160002060006101000a81548173ffffffffffffffffffffffffffffffffffffffff021916908373ffffffffffffffffffffffffffffffffffffffff160217905550808273ffffffffffffffffffffffffffffffffffffffff168473ffffffffffffffffffffffffffffffffffffffff167fddf252ad1be2c89b69c2b068fc378daa952ba7f163c4a11628f55a4df523b3ef60405160405180910390a46113078383836001611bfa565b505050565b611314610ebc565b73ffffffffffffffffffffffffffffffffffffffff166113326108de565b73ffffffffffffffffffffffffffffffffffffffff1614611388576040517f08c379a000000000000000000000000000000000000000000000000000000000815260040161137f90612b1a565b60405180910390fd5b565b8073ffffffffffffffffffffffffffffffffffffffff166352d1902d6040518163ffffffff1660e01b815260040160206040518083038186803b1580156113d057600080fd5b505afa1580156113e4573d6000803e3d6000fd5b505050506040513d601f19601f820116820180604052508101906114089190612501565b7f0ace2c25bb383249161e7ce2b603cc2099f18f7cefd966581720af688cca904560001b1461146c576040517f08c379a0000000000000000000000000000000000000000000000000000000008152600401611463906129da565b60405180910390fd5b807f0ace2c25bb383249161e7ce2b603cc2099f18f7cefd966581720af688cca90455550565b60006002600083815260200190815260200160002060009054906101000a900473ffffffffffffffffffffffffffffffffffffffff169050919050565b6000600760009054906101000a900473ffffffffffffffffffffffffffffffffffffffff16905081600760006101000a81548173ffffffffffffffffffffffffffffffffffffffff021916908373ffffffffffffffffffffffffffffffffffffffff1602179055508173ffffffffffffffffffffffffffffffffffffffff168173ffffffffffffffffffffffffffffffffffffffff167f8be0079c531659141344cd1fd0a4f28419497f9722a3daafe3b4186f6b6457e060405160405180910390a35050565b8173ffffffffffffffffffffffffffffffffffffffff168373ffffffffffffffffffffffffffffffffffffffff161415611604576040517f08c379a00000000000000000000000000000000000000000000000000000000081526004016115fb90612a9a565b60405180910390fd5b80600560008573ffffffffffffffffffffffffffffffffffffffff1673ffffffffffffffffffffffffffffffffffffffff16815260200190815260200160002060008473ffffffffffffffffffffffffffffffffffffffff1673ffffffffffffffffffffffffffffffffffffffff16815260200190815260200160002060006101000a81548160ff0219169083151502179055508173ffffffffffffffffffffffffffffffffffffffff168373ffffffffffffffffffffffffffffffffffffffff167f17307eab39ab6107e8899845ad3d59bd9653f200f220920489ca2b5937696c31836040516116f59190612962565b60405180910390a3505050565b61170d848484611012565b61171984848484611c00565b611758576040517f08c379a000000000000000000000000000000000000000000000000000000000815260040161174f906129fa565b60405180910390fd5b50505050565b606060405180602001604052806000815250905090565b606061178082610e71565b600061178a61175e565b905060008151116117aa57604051806020016040528060008152506117d5565b806117b484611d97565b6040516020016117c59291906128d7565b6040516020818303038152906040525b915050919050565b6001816000016000828254019250508190555050565b600081600001549050919050565b600073ffffffffffffffffffffffffffffffffffffffff168273ffffffffffffffffffffffffffffffffffffffff161415611871576040517f08c379a000000000000000000000000000000000000000000000000000000000815260040161186890612afa565b60405180910390fd5b61187a81611a93565b156118ba576040517f08c379a00000000000000000000000000000000000000000000000000000000081526004016118b190612a5a565b60405180910390fd5b6118c8600083836001611ad4565b6118d181611a93565b15611911576040517f08c379a000000000000000000000000000000000000000000000000000000000815260040161190890612a5a565b60405180910390fd5b6001600360008473ffffffffffffffffffffffffffffffffffffffff1673ffffffffffffffffffffffffffffffffffffffff16815260200190815260200160002060008282540192505081905550816002600083815260200190815260200160002060006101000a81548173ffffffffffffffffffffffffffffffffffffffff021916908373ffffffffffffffffffffffffffffffffffffffff160217905550808273ffffffffffffffffffffffffffffffffffffffff16600073ffffffffffffffffffffffffffffffffffffffff167fddf252ad1be2c89b69c2b068fc378daa952ba7f163c4a11628f55a4df523b3ef60405160405180910390a4611a1b600083836001611bfa565b5050565b611a2882611a93565b611a67576040517f08c379a0000000000000000000000000000000000000000000000000000000008152600401611a5e90612ada565b60405180910390fd5b80600660008481526020019081526020016000209080519060200190611a8e929190612115565b505050565b60008073ffffffffffffffffffffffffffffffffffffffff16611ab583611492565b73ffffffffffffffffffffffffffffffffffffffff1614159050919050565b6001811115611bf457600073ffffffffffffffffffffffffffffffffffffffff168473ffffffffffffffffffffffffffffffffffffffff1614611b685780600360008673ffffffffffffffffffffffffffffffffffffffff1673ffffffffffffffffffffffffffffffffffffffff1681526020019081526020016000206000828254611b609190612d15565b925050819055505b600073ffffffffffffffffffffffffffffffffffffffff168373ffffffffffffffffffffffffffffffffffffffff1614611bf35780600360008573ffffffffffffffffffffffffffffffffffffffff1673ffffffffffffffffffffffffffffffffffffffff1681526020019081526020016000206000828254611beb9190612cbf565b925050819055505b5b50505050565b50505050565b6000611c218473ffffffffffffffffffffffffffffffffffffffff16611ebb565b15611d8a578373ffffffffffffffffffffffffffffffffffffffff1663150b7a02611c4a610ebc565b8786866040518563ffffffff1660e01b8152600401611c6c9493929190612916565b602060405180830381600087803b158015611c8657600080fd5b505af1925050508015611cb757506040513d601f19601f82011682018060405250810190611cb49190612553565b60015b611d3a573d8060008114611ce7576040519150601f19603f3d011682016040523d82523d6000602084013e611cec565b606091505b50600081511415611d32576040517f08c379a0000000000000000000000000000000000000000000000000000000008152600401611d29906129fa565b60405180910390fd5b805181602001fd5b63150b7a0260e01b7bffffffffffffffffffffffffffffffffffffffffffffffffffffffff1916817bffffffffffffffffffffffffffffffffffffffffffffffffffffffff191614915050611d8f565b600190505b949350505050565b606060006001611da684611ede565b01905060008167ffffffffffffffff811115611deb577f4e487b7100000000000000000000000000000000000000000000000000000000600052604160045260246000fd5b6040519080825280601f01601f191660200182016040528015611e1d5781602001600182028036833780820191505090505b509050600082602001820190505b600115611eb0578080600190039150507f3031323334353637383961626364656600000000000000000000000000000000600a86061a8153600a8581611e9a577f4e487b7100000000000000000000000000000000000000000000000000000000600052601260045260246000fd5b0494506000851415611eab57611eb0565b611e2b565b819350505050919050565b6000808273ffffffffffffffffffffffffffffffffffffffff163b119050919050565b600080600090507a184f03e93ff9f4daa797ed6e38ed64bf6a1f0100000000000000008310611f62577a184f03e93ff9f4daa797ed6e38ed64bf6a1f0100000000000000008381611f58577f4e487b7100000000000000000000000000000000000000000000000000000000600052601260045260246000fd5b0492506040810190505b6d04ee2d6d415b85acef81000000008310611fc5576d04ee2d6d415b85acef81000000008381611fbb577f4e487b7100000000000000000000000000000000000000000000000000000000600052601260045260246000fd5b0492506020810190505b662386f26fc10000831061201a57662386f26fc100008381612010577f4e487b7100000000000000000000000000000000000000000000000000000000600052601260045260246000fd5b0492506010810190505b6305f5e1008310612069576305f5e100838161205f577f4e487b7100000000000000000000000000000000000000000000000000000000600052601260045260246000fd5b0492506008810190505b61271083106120b45761271083816120aa577f4e487b7100000000000000000000000000000000000000000000000000000000600052601260045260246000fd5b0492506004810190505b606483106120fd57606483816120f3577f4e487b7100000000000000000000000000000000000000000000000000000000600052601260045260246000fd5b0492506002810190505b600a831061210c576001810190505b80915050919050565b82805461212190612e09565b90600052602060002090601f016020900481019282612143576000855561218a565b82601f1061215c57805160ff191683800117855561218a565b8280016001018555821561218a579182015b8281111561218957825182559160200191906001019061216e565b5b509050612197919061219b565b5090565b5b808211156121b457600081600090555060010161219c565b5090565b60006121cb6121c684612c1a565b612bf5565b9050828152602081018484840111156121e357600080fd5b6121ee848285612dc7565b509392505050565b600061220961220484612c4b565b612bf5565b90508281526020810184848401111561222157600080fd5b61222c848285612dc7565b509392505050565b6000813590506122438161333f565b92915050565b60008135905061225881613356565b92915050565b60008151905061226d8161336d565b92915050565b60008135905061228281613384565b92915050565b60008151905061229781613384565b92915050565b600082601f8301126122ae57600080fd5b81356122be8482602086016121b8565b91505092915050565b600082601f8301126122d857600080fd5b81356122e88482602086016121f6565b91505092915050565b6000813590506123008161339b565b92915050565b60006020828403121561231857600080fd5b600061232684828501612234565b91505092915050565b6000806040838503121561234257600080fd5b600061235085828601612234565b925050602061236185828601612234565b9150509250929050565b60008060006060848603121561238057600080fd5b600061238e86828701612234565b935050602061239f86828701612234565b92505060406123b0868287016122f1565b9150509250925092565b600080600080608085870312156123d057600080fd5b60006123de87828801612234565b94505060206123ef87828801612234565b9350506040612400878288016122f1565b925050606085013567ffffffffffffffff81111561241d57600080fd5b6124298782880161229d565b91505092959194509250565b6000806040838503121561244857600080fd5b600061245685828601612234565b925050602061246785828601612249565b9150509250929050565b6000806040838503121561248457600080fd5b600061249285828601612234565b925050602083013567ffffffffffffffff8111156124af57600080fd5b6124bb858286016122c7565b9150509250929050565b600080604083850312156124d857600080fd5b60006124e685828601612234565b92505060206124f7858286016122f1565b9150509250929050565b60006020828403121561251357600080fd5b60006125218482850161225e565b91505092915050565b60006020828403121561253c57600080fd5b600061254a84828501612273565b91505092915050565b60006020828403121561256557600080fd5b600061257384828501612288565b91505092915050565b60006020828403121561258e57600080fd5b600061259c848285016122f1565b91505092915050565b6125ae81612d49565b82525050565b6125bd81612d5b565b82525050565b6125cc81612d67565b82525050565b60006125dd82612c7c565b6125e78185612c92565b93506125f7818560208601612dd6565b61260081612ef9565b840191505092915050565b600061261682612c87565b6126208185612ca3565b9350612630818560208601612dd6565b61263981612ef9565b840191505092915050565b600061264f82612c87565b6126598185612cb4565b9350612669818560208601612dd6565b80840191505092915050565b6000612682602d83612ca3565b915061268d82612f0a565b604082019050919050565b60006126a5600e83612ca3565b91506126b082612f59565b602082019050919050565b60006126c8603283612ca3565b91506126d382612f82565b604082019050919050565b60006126eb602683612ca3565b91506126f682612fd1565b604082019050919050565b600061270e602583612ca3565b915061271982613020565b604082019050919050565b6000612731601c83612ca3565b915061273c8261306f565b602082019050919050565b6000612754602483612ca3565b915061275f82613098565b604082019050919050565b6000612777601983612ca3565b9150612782826130e7565b602082019050919050565b600061279a602983612ca3565b91506127a582613110565b604082019050919050565b60006127bd602e83612ca3565b91506127c88261315f565b604082019050919050565b60006127e0602083612ca3565b91506127eb826131ae565b602082019050919050565b6000612803602083612ca3565b915061280e826131d7565b602082019050919050565b6000612826601883612ca3565b915061283182613200565b602082019050919050565b6000612849602183612ca3565b915061285482613229565b604082019050919050565b600061286c603d83612ca3565b915061287782613278565b604082019050919050565b600061288f602183612ca3565b915061289a826132c7565b604082019050919050565b60006128b2601283612ca3565b91506128bd82613316565b602082019050919050565b6128d181612dbd565b82525050565b60006128e38285612644565b91506128ef8284612644565b91508190509392505050565b600060208201905061291060008301846125a5565b92915050565b600060808201905061292b60008301876125a5565b61293860208301866125a5565b61294560408301856128c8565b818103606083015261295781846125d2565b905095945050505050565b600060208201905061297760008301846125b4565b92915050565b600060208201905061299260008301846125c3565b92915050565b600060208201905081810360008301526129b2818461260b565b905092915050565b600060208201905081810360008301526129d381612675565b9050919050565b600060208201905081810360008301526129f381612698565b9050919050565b60006020820190508181036000830152612a13816126bb565b9050919050565b60006020820190508181036000830152612a33816126de565b9050919050565b60006020820190508181036000830152612a5381612701565b9050919050565b60006020820190508181036000830152612a7381612724565b9050919050565b60006020820190508181036000830152612a9381612747565b9050919050565b60006020820190508181036000830152612ab38161276a565b9050919050565b60006020820190508181036000830152612ad38161278d565b9050919050565b60006020820190508181036000830152612af3816127b0565b9050919050565b60006020820190508181036000830152612b13816127d3565b9050919050565b60006020820190508181036000830152612b33816127f6565b9050919050565b60006020820190508181036000830152612b5381612819565b9050919050565b60006020820190508181036000830152612b738161283c565b9050919050565b60006020820190508181036000830152612b938161285f565b9050919050565b60006020820190508181036000830152612bb381612882565b9050919050565b60006020820190508181036000830152612bd3816128a5565b9050919050565b6000602082019050612bef60008301846128c8565b92915050565b6000612bff612c10565b9050612c0b8282612e3b565b919050565b6000604051905090565b600067ffffffffffffffff821115612c3557612c34612eca565b5b612c3e82612ef9565b9050602081019050919050565b600067ffffffffffffffff821115612c6657612c65612eca565b5b612c6f82612ef9565b9050602081019050919050565b600081519050919050565b600081519050919050565b600082825260208201905092915050565b600082825260208201905092915050565b600081905092915050565b6000612cca82612dbd565b9150612cd583612dbd565b9250827fffffffffffffffffffffffffffffffffffffffffffffffffffffffffffffffff03821115612d0a57612d09612e6c565b5b828201905092915050565b6000612d2082612dbd565b9150612d2b83612dbd565b925082821015612d3e57612d3d612e6c565b5b828203905092915050565b6000612d5482612d9d565b9050919050565b60008115159050919050565b6000819050919050565b60007fffffffff0000000000000000000000000000000000000000000000000000000082169050919050565b600073ffffffffffffffffffffffffffffffffffffffff82169050919050565b6000819050919050565b82818337600083830152505050565b60005b83811015612df4578082015181840152602081019050612dd9565b83811115612e03576000848401525b50505050565b60006002820490506001821680612e2157607f821691505b60208210811415612e3557612e34612e9b565b5b50919050565b612e4482612ef9565b810181811067ffffffffffffffff82111715612e6357612e62612eca565b5b80604052505050565b7f4e487b7100000000000000000000000000000000000000000000000000000000600052601160045260246000fd5b7f4e487b7100000000000000000000000000000000000000000000000000000000600052602260045260246000fd5b7f4e487b7100000000000000000000000000000000000000000000000000000000600052604160045260246000fd5b6000601f19601f8301169050919050565b7f4552433732313a2063616c6c6572206973206e6f7420746f6b656e206f776e6560008201527f72206f7220617070726f76656400000000000000000000000000000000000000602082015250565b7f4e6f7420636f6d70617469626c65000000000000000000000000000000000000600082015250565b7f4552433732313a207472616e7366657220746f206e6f6e20455243373231526560008201527f63656976657220696d706c656d656e7465720000000000000000000000000000602082015250565b7f4f776e61626c653a206e6577206f776e657220697320746865207a65726f206160008201527f6464726573730000000000000000000000000000000000000000000000000000602082015250565b7f4552433732313a207472616e736665722066726f6d20696e636f72726563742060008201527f6f776e6572000000000000000000000000000000000000000000000000000000602082015250565b7f4552433732313a20746f6b656e20616c7265616479206d696e74656400000000600082015250565b7f4552433732313a207472616e7366657220746f20746865207a65726f2061646460008201527f7265737300000000000000000000000000000000000000000000000000000000602082015250565b7f4552433732313a20617070726f766520746f2063616c6c657200000000000000600082015250565b7f4552433732313a2061646472657373207a65726f206973206e6f74206120766160008201527f6c6964206f776e65720000000000000000000000000000000000000000000000602082015250565b7f45524337323155524953746f726167653a2055524920736574206f66206e6f6e60008201527f6578697374656e7420746f6b656e000000000000000000000000000000000000602082015250565b7f4552433732313a206d696e7420746f20746865207a65726f2061646472657373600082015250565b7f4f776e61626c653a2063616c6c6572206973206e6f7420746865206f776e6572600082015250565b7f4552433732313a20696e76616c696420746f6b656e2049440000000000000000600082015250565b7f4552433732313a20617070726f76616c20746f2063757272656e74206f776e6560008201527f7200000000000000000000000000000000000000000000000000000000000000602082015250565b7f4552433732313a20617070726f76652063616c6c6572206973206e6f7420746f60008201527f6b656e206f776e6572206f7220617070726f76656420666f7220616c6c000000602082015250565b7f436f6e7472616374206973204f6e6c7920666f722070726f6a6563744f776e6560008201527f7200000000000000000000000000000000000000000000000000000000000000602082015250565b7f416c726561647920696e6974616c697a65640000000000000000000000000000600082015250565b61334881612d49565b811461335357600080fd5b50565b61335f81612d5b565b811461336a57600080fd5b50565b61337681612d67565b811461338157600080fd5b50565b61338d81612d71565b811461339857600080fd5b50565b6133a481612dbd565b81146133af57600080fd5b5056fea26469706673582212209cdf037f9d0563258210ae972ae4360164b0a6404ddac7a6db7703c92a75c5c364736f6c63430008040033",
  "immutableReferences": {},
  "source": "// SPDX-License-Identifier: MIT\npragma solidity 0.8.4;\n\nimport \"@openzeppelin/contracts/token/ERC721/ERC721.sol\";\nimport \"@openzeppelin/contracts/utils/Counters.sol\";\nimport \"@openzeppelin/contracts/access/Ownable.sol\";\nimport \"@openzeppelin/contracts/token/ERC721/extensions/ERC721URIStorage.sol\";\n\nimport \"./Proxiable.sol\";\n\ncontract InNFT is ERC721URIStorage, Ownable, Proxiable {\n    using Counters for Counters.Counter;\n    Counters.Counter private _tokenIds;\n    address public projectOwner;\n\n    constructor() public ERC721(\"InNFT\", \"INFT\") {}\n\n    function mintNFT(address recipient, string memory tokenURI)\n        public onlyOwner\n        returns (uint256)\n    {\n        require(msg.sender == projectOwner, \"Contract is Only for projectOwner\");\n        _tokenIds.increment();\n\n        uint256 newItemId = _tokenIds.current();\n        _mint(recipient, newItemId);\n        _setTokenURI(newItemId, tokenURI);\n\n        return newItemId;\n    }\n\n    function init() public {\n        require(projectOwner == address(0), \"Already initalized\");\n        projectOwner = msg.sender;\n    } \n\n    function updateCode(address newCode) onlyOwner public {\n        updateCodeAddress(newCode);\n    }\n}",
  "sourcePath": "/Users/iinsu/Desktop/inbrew/proxyContract_final/contracts/InNFT.sol",
  "compiler": {
    "name": "solc",
    "version": "0.8.4+commit.c7e474f2.Emscripten.clang"
  },
  "schemaVersion": "3.4.11",
  "updatedAt": "2023-01-31T07:51:09.267Z",
  "networkType": "ethereum",
  "devdoc": {
    "kind": "dev",
    "methods": {
      "approve(address,uint256)": {
        "details": "See {IERC721-approve}."
      },
      "balanceOf(address)": {
        "details": "See {IERC721-balanceOf}."
      },
      "getApproved(uint256)": {
        "details": "See {IERC721-getApproved}."
      },
      "isApprovedForAll(address,address)": {
        "details": "See {IERC721-isApprovedForAll}."
      },
      "name()": {
        "details": "See {IERC721Metadata-name}."
      },
      "owner()": {
        "details": "Returns the address of the current owner."
      },
      "ownerOf(uint256)": {
        "details": "See {IERC721-ownerOf}."
      },
      "renounceOwnership()": {
        "details": "Leaves the contract without owner. It will not be possible to call `onlyOwner` functions anymore. Can only be called by the current owner. NOTE: Renouncing ownership will leave the contract without an owner, thereby removing any functionality that is only available to the owner."
      },
      "safeTransferFrom(address,address,uint256)": {
        "details": "See {IERC721-safeTransferFrom}."
      },
      "safeTransferFrom(address,address,uint256,bytes)": {
        "details": "See {IERC721-safeTransferFrom}."
      },
      "setApprovalForAll(address,bool)": {
        "details": "See {IERC721-setApprovalForAll}."
      },
      "supportsInterface(bytes4)": {
        "details": "See {IERC165-supportsInterface}."
      },
      "symbol()": {
        "details": "See {IERC721Metadata-symbol}."
      },
      "tokenURI(uint256)": {
        "details": "See {IERC721Metadata-tokenURI}."
      },
      "transferFrom(address,address,uint256)": {
        "details": "See {IERC721-transferFrom}."
      },
      "transferOwnership(address)": {
        "details": "Transfers ownership of the contract to a new account (`newOwner`). Can only be called by the current owner."
      }
    },
    "version": 1
  },
  "userdoc": {
    "kind": "user",
    "methods": {},
    "version": 1
  }
}