{
  "contractName": "InNFT",
  "abi": [
    {
      "inputs": [],
      "stateMutability": "nonpayable",
      "type": "constructor"
    },
    {
      "anonymous": false,
      "inputs": [
        {
          "indexed": true,
          "internalType": "address",
          "name": "owner",
          "type": "address"
        },
        {
          "indexed": true,
          "internalType": "address",
          "name": "approved",
          "type": "address"
        },
        {
          "indexed": true,
          "internalType": "uint256",
          "name": "tokenId",
          "type": "uint256"
        }
      ],
      "name": "Approval",
      "type": "event"
    },
    {
      "anonymous": false,
      "inputs": [
        {
          "indexed": true,
          "internalType": "address",
          "name": "owner",
          "type": "address"
        },
        {
          "indexed": true,
          "internalType": "address",
          "name": "operator",
          "type": "address"
        },
        {
          "indexed": false,
          "internalType": "bool",
          "name": "approved",
          "type": "bool"
        }
      ],
      "name": "ApprovalForAll",
      "type": "event"
    },
    {
      "anonymous": false,
      "inputs": [
        {
          "indexed": true,
          "internalType": "address",
          "name": "previousOwner",
          "type": "address"
        },
        {
          "indexed": true,
          "internalType": "address",
          "name": "newOwner",
          "type": "address"
        }
      ],
      "name": "OwnershipTransferred",
      "type": "event"
    },
    {
      "anonymous": false,
      "inputs": [
        {
          "indexed": true,
          "internalType": "address",
          "name": "from",
          "type": "address"
        },
        {
          "indexed": true,
          "internalType": "address",
          "name": "to",
          "type": "address"
        },
        {
          "indexed": true,
          "internalType": "uint256",
          "name": "tokenId",
          "type": "uint256"
        }
      ],
      "name": "Transfer",
      "type": "event"
    },
    {
      "inputs": [
        {
          "internalType": "address",
          "name": "to",
          "type": "address"
        },
        {
          "internalType": "uint256",
          "name": "tokenId",
          "type": "uint256"
        }
      ],
      "name": "approve",
      "outputs": [],
      "stateMutability": "nonpayable",
      "type": "function"
    },
    {
      "inputs": [
        {
          "internalType": "address",
          "name": "owner",
          "type": "address"
        }
      ],
      "name": "balanceOf",
      "outputs": [
        {
          "internalType": "uint256",
          "name": "",
          "type": "uint256"
        }
      ],
      "stateMutability": "view",
      "type": "function"
    },
    {
      "inputs": [
        {
          "internalType": "uint256",
          "name": "tokenId",
          "type": "uint256"
        }
      ],
      "name": "getApproved",
      "outputs": [
        {
          "internalType": "address",
          "name": "",
          "type": "address"
        }
      ],
      "stateMutability": "view",
      "type": "function"
    },
    {
      "inputs": [
        {
          "internalType": "address",
          "name": "owner",
          "type": "address"
        },
        {
          "internalType": "address",
          "name": "operator",
          "type": "address"
        }
      ],
      "name": "isApprovedForAll",
      "outputs": [
        {
          "internalType": "bool",
          "name": "",
          "type": "bool"
        }
      ],
      "stateMutability": "view",
      "type": "function"
    },
    {
      "inputs": [],
      "name": "name",
      "outputs": [
        {
          "internalType": "string",
          "name": "",
          "type": "string"
        }
      ],
      "stateMutability": "view",
      "type": "function"
    },
    {
      "inputs": [],
      "name": "owner",
      "outputs": [
        {
          "internalType": "address",
          "name": "",
          "type": "address"
        }
      ],
      "stateMutability": "view",
      "type": "function"
    },
    {
      "inputs": [
        {
          "internalType": "uint256",
          "name": "tokenId",
          "type": "uint256"
        }
      ],
      "name": "ownerOf",
      "outputs": [
        {
          "internalType": "address",
          "name": "",
          "type": "address"
        }
      ],
      "stateMutability": "view",
      "type": "function"
    },
    {
      "inputs": [],
      "name": "projectOwner",
      "outputs": [
        {
          "internalType": "address",
          "name": "",
          "type": "address"
        }
      ],
      "stateMutability": "view",
      "type": "function"
    },
    {
      "inputs": [],
      "name": "proxiableUUID",
      "outputs": [
        {
          "internalType": "bytes32",
          "name": "",
          "type": "bytes32"
        }
      ],
      "stateMutability": "pure",
      "type": "function"
    },
    {
      "inputs": [],
      "name": "renounceOwnership",
      "outputs": [],
      "stateMutability": "nonpayable",
      "type": "function"
    },
    {
      "inputs": [
        {
          "internalType": "address",
          "name": "from",
          "type": "address"
        },
        {
          "internalType": "address",
          "name": "to",
          "type": "address"
        },
        {
          "internalType": "uint256",
          "name": "tokenId",
          "type": "uint256"
        }
      ],
      "name": "safeTransferFrom",
      "outputs": [],
      "stateMutability": "nonpayable",
      "type": "function"
    },
    {
      "inputs": [
        {
          "internalType": "address",
          "name": "from",
          "type": "address"
        },
        {
          "internalType": "address",
          "name": "to",
          "type": "address"
        },
        {
          "internalType": "uint256",
          "name": "tokenId",
          "type": "uint256"
        },
        {
          "internalType": "bytes",
          "name": "data",
          "type": "bytes"
        }
      ],
      "name": "safeTransferFrom",
      "outputs": [],
      "stateMutability": "nonpayable",
      "type": "function"
    },
    {
      "inputs": [
        {
          "internalType": "address",
          "name": "operator",
          "type": "address"
        },
        {
          "internalType": "bool",
          "name": "approved",
          "type": "bool"
        }
      ],
      "name": "setApprovalForAll",
      "outputs": [],
      "stateMutability": "nonpayable",
      "type": "function"
    },
    {
      "inputs": [
        {
          "internalType": "bytes4",
          "name": "interfaceId",
          "type": "bytes4"
        }
      ],
      "name": "supportsInterface",
      "outputs": [
        {
          "internalType": "bool",
          "name": "",
          "type": "bool"
        }
      ],
      "stateMutability": "view",
      "type": "function"
    },
    {
      "inputs": [],
      "name": "symbol",
      "outputs": [
        {
          "internalType": "string",
          "name": "",
          "type": "string"
        }
      ],
      "stateMutability": "view",
      "type": "function"
    },
    {
      "inputs": [
        {
          "internalType": "uint256",
          "name": "tokenId",
          "type": "uint256"
        }
      ],
      "name": "tokenURI",
      "outputs": [
        {
          "internalType": "string",
          "name": "",
          "type": "string"
        }
      ],
      "stateMutability": "view",
      "type": "function"
    },
    {
      "inputs": [
        {
          "internalType": "address",
          "name": "from",
          "type": "address"
        },
        {
          "internalType": "address",
          "name": "to",
          "type": "address"
        },
        {
          "internalType": "uint256",
          "name": "tokenId",
          "type": "uint256"
        }
      ],
      "name": "transferFrom",
      "outputs": [],
      "stateMutability": "nonpayable",
      "type": "function"
    },
    {
      "inputs": [
        {
          "internalType": "address",
          "name": "newOwner",
          "type": "address"
        }
      ],
      "name": "transferOwnership",
      "outputs": [],
      "stateMutability": "nonpayable",
      "type": "function"
    },
    {
      "inputs": [
        {
          "internalType": "address",
          "name": "recipient",
          "type": "address"
        },
        {
          "internalType": "string",
          "name": "tokenURI",
          "type": "string"
        }
      ],
      "name": "mintNFT",
      "outputs": [
        {
          "internalType": "uint256",
          "name": "",
          "type": "uint256"
        }
      ],
      "stateMutability": "nonpayable",
      "type": "function"
    },
    {
      "inputs": [],
      "name": "init",
      "outputs": [],
      "stateMutability": "nonpayable",
      "type": "function"
    },
    {
      "inputs": [
        {
          "internalType": "address",
          "name": "newCode",
          "type": "address"
        }
      ],
      "name": "updateCode",
      "outputs": [],
      "stateMutability": "nonpayable",
      "type": "function"
    },
    {
      "inputs": [
        {
          "internalType": "address",
          "name": "_proxyContract",
          "type": "address"
        }
      ],
      "name": "setContractAddress",
      "outputs": [],
      "stateMutability": "nonpayable",
      "type": "function"
    }
  ],
  "bytecode": "0x60806040523480156200001157600080fd5b506040518060400160405280600581526020017f496e4e46540000000000000000000000000000000000000000000000000000008152506040518060400160405280600481526020017f494e465400000000000000000000000000000000000000000000000000000000815250816000908051906020019062000096929190620001a6565b508060019080519060200190620000af929190620001a6565b505050620000d2620000c6620000d860201b60201c565b620000e060201b60201c565b620002bb565b600033905090565b6000600760009054906101000a900473ffffffffffffffffffffffffffffffffffffffff16905081600760006101000a81548173ffffffffffffffffffffffffffffffffffffffff021916908373ffffffffffffffffffffffffffffffffffffffff1602179055508173ffffffffffffffffffffffffffffffffffffffff168173ffffffffffffffffffffffffffffffffffffffff167f8be0079c531659141344cd1fd0a4f28419497f9722a3daafe3b4186f6b6457e060405160405180910390a35050565b828054620001b49062000256565b90600052602060002090601f016020900481019282620001d8576000855562000224565b82601f10620001f357805160ff191683800117855562000224565b8280016001018555821562000224579182015b828111156200022357825182559160200191906001019062000206565b5b50905062000233919062000237565b5090565b5b808211156200025257600081600090555060010162000238565b5090565b600060028204905060018216806200026f57607f821691505b602082108114156200028657620002856200028c565b5b50919050565b7f4e487b7100000000000000000000000000000000000000000000000000000000600052602260045260246000fd5b61364480620002cb6000396000f3fe608060405234801561001057600080fd5b50600436106101425760003560e01c8063715018a6116100b8578063b88d4fde1161007c578063b88d4fde1461034f578063c87b56dd1461036b578063e1c7392a1461039b578063e985e9c5146103a5578063eacabe14146103d5578063f2fde38b1461040557610142565b8063715018a6146102cf5780638da5cb5b146102d957806395d89b41146102f7578063a22cb46514610315578063a4475ce41461033157610142565b806342842e0e1161010a57806342842e0e146101fd5780634695195414610219578063477bddaa1461023557806352d1902d146102515780636352211e1461026f57806370a082311461029f57610142565b806301ffc9a71461014757806306fdde0314610177578063081812fc14610195578063095ea7b3146101c557806323b872dd146101e1575b600080fd5b610161600480360381019061015c91906126ae565b610421565b60405161016e9190612b2c565b60405180910390f35b61017f610503565b60405161018c9190612b62565b60405180910390f35b6101af60048036038101906101aa9190612700565b610595565b6040516101bc9190612ac5565b60405180910390f35b6101df60048036038101906101da9190612649565b6105db565b005b6101fb60048036038101906101f691906124ef565b6106f3565b005b610217600480360381019061021291906124ef565b610753565b005b610233600480360381019061022e919061248a565b610773565b005b61024f600480360381019061024a919061248a565b610787565b005b61025961085b565b6040516102669190612b47565b60405180910390f35b61028960048036038101906102849190612700565b610886565b6040516102969190612ac5565b60405180910390f35b6102b960048036038101906102b4919061248a565b61090d565b6040516102c69190612de4565b60405180910390f35b6102d76109c5565b005b6102e16109d9565b6040516102ee9190612ac5565b60405180910390f35b6102ff610a03565b60405161030c9190612b62565b60405180910390f35b61032f600480360381019061032a91906125b9565b610a95565b005b610339610aab565b6040516103469190612ac5565b60405180910390f35b6103696004803603810190610364919061253e565b610ad1565b005b61038560048036038101906103809190612700565b610b33565b6040516103929190612b62565b60405180910390f35b6103a3610c46565b005b6103bf60048036038101906103ba91906124b3565b610d1a565b6040516103cc9190612b2c565b60405180910390f35b6103ef60048036038101906103ea91906125f5565b610dae565b6040516103fc9190612de4565b60405180910390f35b61041f600480360381019061041a919061248a565b610f07565b005b60007f80ac58cd000000000000000000000000000000000000000000000000000000007bffffffffffffffffffffffffffffffffffffffffffffffffffffffff1916827bffffffffffffffffffffffffffffffffffffffffffffffffffffffff191614806104ec57507f5b5e139f000000000000000000000000000000000000000000000000000000007bffffffffffffffffffffffffffffffffffffffffffffffffffffffff1916827bffffffffffffffffffffffffffffffffffffffffffffffffffffffff1916145b806104fc57506104fb82610f8b565b5b9050919050565b60606000805461051290613013565b80601f016020809104026020016040519081016040528092919081815260200182805461053e90613013565b801561058b5780601f106105605761010080835404028352916020019161058b565b820191906000526020600020905b81548152906001019060200180831161056e57829003601f168201915b5050505050905090565b60006105a082610ff5565b6004600083815260200190815260200160002060009054906101000a900473ffffffffffffffffffffffffffffffffffffffff169050919050565b60006105e682610886565b90508073ffffffffffffffffffffffffffffffffffffffff168373ffffffffffffffffffffffffffffffffffffffff161415610657576040517f08c379a000000000000000000000000000000000000000000000000000000000815260040161064e90612d64565b60405180910390fd5b8073ffffffffffffffffffffffffffffffffffffffff16610676611040565b73ffffffffffffffffffffffffffffffffffffffff1614806106a557506106a48161069f611040565b610d1a565b5b6106e4576040517f08c379a00000000000000000000000000000000000000000000000000000000081526004016106db90612da4565b60405180910390fd5b6106ee8383611048565b505050565b6107046106fe611040565b82611101565b610743576040517f08c379a000000000000000000000000000000000000000000000000000000000815260040161073a90612b84565b60405180910390fd5b61074e838383611196565b505050565b61076e83838360405180602001604052806000815250610ad1565b505050565b61077b611490565b6107848161150e565b50565b3373ffffffffffffffffffffffffffffffffffffffff16600a60009054906101000a900473ffffffffffffffffffffffffffffffffffffffff1673ffffffffffffffffffffffffffffffffffffffff1614610817576040517f08c379a000000000000000000000000000000000000000000000000000000000815260040161080e90612d84565b60405180910390fd5b80600960006101000a81548173ffffffffffffffffffffffffffffffffffffffff021916908373ffffffffffffffffffffffffffffffffffffffff16021790555050565b60007f0ace2c25bb383249161e7ce2b603cc2099f18f7cefd966581720af688cca904560001b905090565b60008061089283611616565b9050600073ffffffffffffffffffffffffffffffffffffffff168173ffffffffffffffffffffffffffffffffffffffff161415610904576040517f08c379a00000000000000000000000000000000000000000000000000000000081526004016108fb90612d44565b60405180910390fd5b80915050919050565b60008073ffffffffffffffffffffffffffffffffffffffff168273ffffffffffffffffffffffffffffffffffffffff16141561097e576040517f08c379a000000000000000000000000000000000000000000000000000000000815260040161097590612ca4565b60405180910390fd5b600360008373ffffffffffffffffffffffffffffffffffffffff1673ffffffffffffffffffffffffffffffffffffffff168152602001908152602001600020549050919050565b6109cd611490565b6109d76000611653565b565b6000600760009054906101000a900473ffffffffffffffffffffffffffffffffffffffff16905090565b606060018054610a1290613013565b80601f0160208091040260200160405190810160405280929190818152602001828054610a3e90613013565b8015610a8b5780601f10610a6057610100808354040283529160200191610a8b565b820191906000526020600020905b815481529060010190602001808311610a6e57829003601f168201915b5050505050905090565b610aa7610aa0611040565b8383611719565b5050565b600a60009054906101000a900473ffffffffffffffffffffffffffffffffffffffff1681565b610ae2610adc611040565b83611101565b610b21576040517f08c379a0000000000000000000000000000000000000000000000000000000008152600401610b1890612b84565b60405180910390fd5b610b2d84848484611886565b50505050565b6060610b3e82610ff5565b6000600660008481526020019081526020016000208054610b5e90613013565b80601f0160208091040260200160405190810160405280929190818152602001828054610b8a90613013565b8015610bd75780601f10610bac57610100808354040283529160200191610bd7565b820191906000526020600020905b815481529060010190602001808311610bba57829003601f168201915b505050505090506000610be86118e2565b9050600081511415610bfe578192505050610c41565b600082511115610c33578082604051602001610c1b929190612aa1565b60405160208183030381529060405292505050610c41565b610c3c846118f9565b925050505b919050565b600073ffffffffffffffffffffffffffffffffffffffff16600a60009054906101000a900473ffffffffffffffffffffffffffffffffffffffff1673ffffffffffffffffffffffffffffffffffffffff1614610cd7576040517f08c379a0000000000000000000000000000000000000000000000000000000008152600401610cce90612dc4565b60405180910390fd5b33600a60006101000a81548173ffffffffffffffffffffffffffffffffffffffff021916908373ffffffffffffffffffffffffffffffffffffffff160217905550565b6000600560008473ffffffffffffffffffffffffffffffffffffffff1673ffffffffffffffffffffffffffffffffffffffff16815260200190815260200160002060008373ffffffffffffffffffffffffffffffffffffffff1673ffffffffffffffffffffffffffffffffffffffff16815260200190815260200160002060009054906101000a900460ff16905092915050565b60008073ffffffffffffffffffffffffffffffffffffffff16600960009054906101000a900473ffffffffffffffffffffffffffffffffffffffff1673ffffffffffffffffffffffffffffffffffffffff161415610e41576040517f08c379a0000000000000000000000000000000000000000000000000000000008152600401610e3890612c84565b60405180910390fd5b600960009054906101000a900473ffffffffffffffffffffffffffffffffffffffff1673ffffffffffffffffffffffffffffffffffffffff163373ffffffffffffffffffffffffffffffffffffffff1614610ed1576040517f08c379a0000000000000000000000000000000000000000000000000000000008152600401610ec890612d04565b60405180910390fd5b610edb6008611961565b6000610ee76008611977565b9050610ef38482611985565b610efd8184611ba3565b8091505092915050565b610f0f611490565b600073ffffffffffffffffffffffffffffffffffffffff168173ffffffffffffffffffffffffffffffffffffffff161415610f7f576040517f08c379a0000000000000000000000000000000000000000000000000000000008152600401610f7690612be4565b60405180910390fd5b610f8881611653565b50565b60007f01ffc9a7000000000000000000000000000000000000000000000000000000007bffffffffffffffffffffffffffffffffffffffffffffffffffffffff1916827bffffffffffffffffffffffffffffffffffffffffffffffffffffffff1916149050919050565b610ffe81611c17565b61103d576040517f08c379a000000000000000000000000000000000000000000000000000000000815260040161103490612d44565b60405180910390fd5b50565b600033905090565b816004600083815260200190815260200160002060006101000a81548173ffffffffffffffffffffffffffffffffffffffff021916908373ffffffffffffffffffffffffffffffffffffffff160217905550808273ffffffffffffffffffffffffffffffffffffffff166110bb83610886565b73ffffffffffffffffffffffffffffffffffffffff167f8c5be1e5ebec7d5bd14f71427d1e84f3dd0314c0f7b2291e5b200ac8c7c3b92560405160405180910390a45050565b60008061110d83610886565b90508073ffffffffffffffffffffffffffffffffffffffff168473ffffffffffffffffffffffffffffffffffffffff16148061114f575061114e8185610d1a565b5b8061118d57508373ffffffffffffffffffffffffffffffffffffffff1661117584610595565b73ffffffffffffffffffffffffffffffffffffffff16145b91505092915050565b8273ffffffffffffffffffffffffffffffffffffffff166111b682610886565b73ffffffffffffffffffffffffffffffffffffffff161461120c576040517f08c379a000000000000000000000000000000000000000000000000000000000815260040161120390612c04565b60405180910390fd5b600073ffffffffffffffffffffffffffffffffffffffff168273ffffffffffffffffffffffffffffffffffffffff16141561127c576040517f08c379a000000000000000000000000000000000000000000000000000000000815260040161127390612c44565b60405180910390fd5b6112898383836001611c58565b8273ffffffffffffffffffffffffffffffffffffffff166112a982610886565b73ffffffffffffffffffffffffffffffffffffffff16146112ff576040517f08c379a00000000000000000000000000000000000000000000000000000000081526004016112f690612c04565b60405180910390fd5b6004600082815260200190815260200160002060006101000a81549073ffffffffffffffffffffffffffffffffffffffff02191690556001600360008573ffffffffffffffffffffffffffffffffffffffff1673ffffffffffffffffffffffffffffffffffffffff168152602001908152602001600020600082825403925050819055506001600360008473ffffffffffffffffffffffffffffffffffffffff1673ffffffffffffffffffffffffffffffffffffffff16815260200190815260200160002060008282540192505081905550816002600083815260200190815260200160002060006101000a81548173ffffffffffffffffffffffffffffffffffffffff021916908373ffffffffffffffffffffffffffffffffffffffff160217905550808273ffffffffffffffffffffffffffffffffffffffff168473ffffffffffffffffffffffffffffffffffffffff167fddf252ad1be2c89b69c2b068fc378daa952ba7f163c4a11628f55a4df523b3ef60405160405180910390a461148b8383836001611d7e565b505050565b611498611040565b73ffffffffffffffffffffffffffffffffffffffff166114b66109d9565b73ffffffffffffffffffffffffffffffffffffffff161461150c576040517f08c379a000000000000000000000000000000000000000000000000000000000815260040161150390612d24565b60405180910390fd5b565b8073ffffffffffffffffffffffffffffffffffffffff166352d1902d6040518163ffffffff1660e01b815260040160206040518083038186803b15801561155457600080fd5b505afa158015611568573d6000803e3d6000fd5b505050506040513d601f19601f8201168201806040525081019061158c9190612685565b7f0ace2c25bb383249161e7ce2b603cc2099f18f7cefd966581720af688cca904560001b146115f0576040517f08c379a00000000000000000000000000000000000000000000000000000000081526004016115e790612ba4565b60405180910390fd5b807f0ace2c25bb383249161e7ce2b603cc2099f18f7cefd966581720af688cca90455550565b60006002600083815260200190815260200160002060009054906101000a900473ffffffffffffffffffffffffffffffffffffffff169050919050565b6000600760009054906101000a900473ffffffffffffffffffffffffffffffffffffffff16905081600760006101000a81548173ffffffffffffffffffffffffffffffffffffffff021916908373ffffffffffffffffffffffffffffffffffffffff1602179055508173ffffffffffffffffffffffffffffffffffffffff168173ffffffffffffffffffffffffffffffffffffffff167f8be0079c531659141344cd1fd0a4f28419497f9722a3daafe3b4186f6b6457e060405160405180910390a35050565b8173ffffffffffffffffffffffffffffffffffffffff168373ffffffffffffffffffffffffffffffffffffffff161415611788576040517f08c379a000000000000000000000000000000000000000000000000000000000815260040161177f90612c64565b60405180910390fd5b80600560008573ffffffffffffffffffffffffffffffffffffffff1673ffffffffffffffffffffffffffffffffffffffff16815260200190815260200160002060008473ffffffffffffffffffffffffffffffffffffffff1673ffffffffffffffffffffffffffffffffffffffff16815260200190815260200160002060006101000a81548160ff0219169083151502179055508173ffffffffffffffffffffffffffffffffffffffff168373ffffffffffffffffffffffffffffffffffffffff167f17307eab39ab6107e8899845ad3d59bd9653f200f220920489ca2b5937696c31836040516118799190612b2c565b60405180910390a3505050565b611891848484611196565b61189d84848484611d84565b6118dc576040517f08c379a00000000000000000000000000000000000000000000000000000000081526004016118d390612bc4565b60405180910390fd5b50505050565b606060405180602001604052806000815250905090565b606061190482610ff5565b600061190e6118e2565b9050600081511161192e5760405180602001604052806000815250611959565b8061193884611f1b565b604051602001611949929190612aa1565b6040516020818303038152906040525b915050919050565b6001816000016000828254019250508190555050565b600081600001549050919050565b600073ffffffffffffffffffffffffffffffffffffffff168273ffffffffffffffffffffffffffffffffffffffff1614156119f5576040517f08c379a00000000000000000000000000000000000000000000000000000000081526004016119ec90612ce4565b60405180910390fd5b6119fe81611c17565b15611a3e576040517f08c379a0000000000000000000000000000000000000000000000000000000008152600401611a3590612c24565b60405180910390fd5b611a4c600083836001611c58565b611a5581611c17565b15611a95576040517f08c379a0000000000000000000000000000000000000000000000000000000008152600401611a8c90612c24565b60405180910390fd5b6001600360008473ffffffffffffffffffffffffffffffffffffffff1673ffffffffffffffffffffffffffffffffffffffff16815260200190815260200160002060008282540192505081905550816002600083815260200190815260200160002060006101000a81548173ffffffffffffffffffffffffffffffffffffffff021916908373ffffffffffffffffffffffffffffffffffffffff160217905550808273ffffffffffffffffffffffffffffffffffffffff16600073ffffffffffffffffffffffffffffffffffffffff167fddf252ad1be2c89b69c2b068fc378daa952ba7f163c4a11628f55a4df523b3ef60405160405180910390a4611b9f600083836001611d7e565b5050565b611bac82611c17565b611beb576040517f08c379a0000000000000000000000000000000000000000000000000000000008152600401611be290612cc4565b60405180910390fd5b80600660008481526020019081526020016000209080519060200190611c12929190612299565b505050565b60008073ffffffffffffffffffffffffffffffffffffffff16611c3983611616565b73ffffffffffffffffffffffffffffffffffffffff1614159050919050565b6001811115611d7857600073ffffffffffffffffffffffffffffffffffffffff168473ffffffffffffffffffffffffffffffffffffffff1614611cec5780600360008673ffffffffffffffffffffffffffffffffffffffff1673ffffffffffffffffffffffffffffffffffffffff1681526020019081526020016000206000828254611ce49190612f1f565b925050819055505b600073ffffffffffffffffffffffffffffffffffffffff168373ffffffffffffffffffffffffffffffffffffffff1614611d775780600360008573ffffffffffffffffffffffffffffffffffffffff1673ffffffffffffffffffffffffffffffffffffffff1681526020019081526020016000206000828254611d6f9190612ec9565b925050819055505b5b50505050565b50505050565b6000611da58473ffffffffffffffffffffffffffffffffffffffff1661203f565b15611f0e578373ffffffffffffffffffffffffffffffffffffffff1663150b7a02611dce611040565b8786866040518563ffffffff1660e01b8152600401611df09493929190612ae0565b602060405180830381600087803b158015611e0a57600080fd5b505af1925050508015611e3b57506040513d601f19601f82011682018060405250810190611e3891906126d7565b60015b611ebe573d8060008114611e6b576040519150601f19603f3d011682016040523d82523d6000602084013e611e70565b606091505b50600081511415611eb6576040517f08c379a0000000000000000000000000000000000000000000000000000000008152600401611ead90612bc4565b60405180910390fd5b805181602001fd5b63150b7a0260e01b7bffffffffffffffffffffffffffffffffffffffffffffffffffffffff1916817bffffffffffffffffffffffffffffffffffffffffffffffffffffffff191614915050611f13565b600190505b949350505050565b606060006001611f2a84612062565b01905060008167ffffffffffffffff811115611f6f577f4e487b7100000000000000000000000000000000000000000000000000000000600052604160045260246000fd5b6040519080825280601f01601f191660200182016040528015611fa15781602001600182028036833780820191505090505b509050600082602001820190505b600115612034578080600190039150507f3031323334353637383961626364656600000000000000000000000000000000600a86061a8153600a858161201e577f4e487b7100000000000000000000000000000000000000000000000000000000600052601260045260246000fd5b049450600085141561202f57612034565b611faf565b819350505050919050565b6000808273ffffffffffffffffffffffffffffffffffffffff163b119050919050565b600080600090507a184f03e93ff9f4daa797ed6e38ed64bf6a1f01000000000000000083106120e6577a184f03e93ff9f4daa797ed6e38ed64bf6a1f01000000000000000083816120dc577f4e487b7100000000000000000000000000000000000000000000000000000000600052601260045260246000fd5b0492506040810190505b6d04ee2d6d415b85acef81000000008310612149576d04ee2d6d415b85acef8100000000838161213f577f4e487b7100000000000000000000000000000000000000000000000000000000600052601260045260246000fd5b0492506020810190505b662386f26fc10000831061219e57662386f26fc100008381612194577f4e487b7100000000000000000000000000000000000000000000000000000000600052601260045260246000fd5b0492506010810190505b6305f5e10083106121ed576305f5e10083816121e3577f4e487b7100000000000000000000000000000000000000000000000000000000600052601260045260246000fd5b0492506008810190505b612710831061223857612710838161222e577f4e487b7100000000000000000000000000000000000000000000000000000000600052601260045260246000fd5b0492506004810190505b606483106122815760648381612277577f4e487b7100000000000000000000000000000000000000000000000000000000600052601260045260246000fd5b0492506002810190505b600a8310612290576001810190505b80915050919050565b8280546122a590613013565b90600052602060002090601f0160209004810192826122c7576000855561230e565b82601f106122e057805160ff191683800117855561230e565b8280016001018555821561230e579182015b8281111561230d5782518255916020019190600101906122f2565b5b50905061231b919061231f565b5090565b5b80821115612338576000816000905550600101612320565b5090565b600061234f61234a84612e24565b612dff565b90508281526020810184848401111561236757600080fd5b612372848285612fd1565b509392505050565b600061238d61238884612e55565b612dff565b9050828152602081018484840111156123a557600080fd5b6123b0848285612fd1565b509392505050565b6000813590506123c78161359b565b92915050565b6000813590506123dc816135b2565b92915050565b6000815190506123f1816135c9565b92915050565b600081359050612406816135e0565b92915050565b60008151905061241b816135e0565b92915050565b600082601f83011261243257600080fd5b813561244284826020860161233c565b91505092915050565b600082601f83011261245c57600080fd5b813561246c84826020860161237a565b91505092915050565b600081359050612484816135f7565b92915050565b60006020828403121561249c57600080fd5b60006124aa848285016123b8565b91505092915050565b600080604083850312156124c657600080fd5b60006124d4858286016123b8565b92505060206124e5858286016123b8565b9150509250929050565b60008060006060848603121561250457600080fd5b6000612512868287016123b8565b9350506020612523868287016123b8565b925050604061253486828701612475565b9150509250925092565b6000806000806080858703121561255457600080fd5b6000612562878288016123b8565b9450506020612573878288016123b8565b935050604061258487828801612475565b925050606085013567ffffffffffffffff8111156125a157600080fd5b6125ad87828801612421565b91505092959194509250565b600080604083850312156125cc57600080fd5b60006125da858286016123b8565b92505060206125eb858286016123cd565b9150509250929050565b6000806040838503121561260857600080fd5b6000612616858286016123b8565b925050602083013567ffffffffffffffff81111561263357600080fd5b61263f8582860161244b565b9150509250929050565b6000806040838503121561265c57600080fd5b600061266a858286016123b8565b925050602061267b85828601612475565b9150509250929050565b60006020828403121561269757600080fd5b60006126a5848285016123e2565b91505092915050565b6000602082840312156126c057600080fd5b60006126ce848285016123f7565b91505092915050565b6000602082840312156126e957600080fd5b60006126f78482850161240c565b91505092915050565b60006020828403121561271257600080fd5b600061272084828501612475565b91505092915050565b61273281612f53565b82525050565b61274181612f65565b82525050565b61275081612f71565b82525050565b600061276182612e86565b61276b8185612e9c565b935061277b818560208601612fe0565b61278481613103565b840191505092915050565b600061279a82612e91565b6127a48185612ead565b93506127b4818560208601612fe0565b6127bd81613103565b840191505092915050565b60006127d382612e91565b6127dd8185612ebe565b93506127ed818560208601612fe0565b80840191505092915050565b6000612806602d83612ead565b915061281182613114565b604082019050919050565b6000612829600e83612ead565b915061283482613163565b602082019050919050565b600061284c603283612ead565b91506128578261318c565b604082019050919050565b600061286f602683612ead565b915061287a826131db565b604082019050919050565b6000612892602583612ead565b915061289d8261322a565b604082019050919050565b60006128b5601c83612ead565b91506128c082613279565b602082019050919050565b60006128d8602483612ead565b91506128e3826132a2565b604082019050919050565b60006128fb601983612ead565b9150612906826132f1565b602082019050919050565b600061291e601b83612ead565b91506129298261331a565b602082019050919050565b6000612941602983612ead565b915061294c82613343565b604082019050919050565b6000612964602e83612ead565b915061296f82613392565b604082019050919050565b6000612987602083612ead565b9150612992826133e1565b602082019050919050565b60006129aa602883612ead565b91506129b58261340a565b604082019050919050565b60006129cd602083612ead565b91506129d882613459565b602082019050919050565b60006129f0601883612ead565b91506129fb82613482565b602082019050919050565b6000612a13602183612ead565b9150612a1e826134ab565b604082019050919050565b6000612a36602083612ead565b9150612a41826134fa565b602082019050919050565b6000612a59603d83612ead565b9150612a6482613523565b604082019050919050565b6000612a7c601283612ead565b9150612a8782613572565b602082019050919050565b612a9b81612fc7565b82525050565b6000612aad82856127c8565b9150612ab982846127c8565b91508190509392505050565b6000602082019050612ada6000830184612729565b92915050565b6000608082019050612af56000830187612729565b612b026020830186612729565b612b0f6040830185612a92565b8181036060830152612b218184612756565b905095945050505050565b6000602082019050612b416000830184612738565b92915050565b6000602082019050612b5c6000830184612747565b92915050565b60006020820190508181036000830152612b7c818461278f565b905092915050565b60006020820190508181036000830152612b9d816127f9565b9050919050565b60006020820190508181036000830152612bbd8161281c565b9050919050565b60006020820190508181036000830152612bdd8161283f565b9050919050565b60006020820190508181036000830152612bfd81612862565b9050919050565b60006020820190508181036000830152612c1d81612885565b9050919050565b60006020820190508181036000830152612c3d816128a8565b9050919050565b60006020820190508181036000830152612c5d816128cb565b9050919050565b60006020820190508181036000830152612c7d816128ee565b9050919050565b60006020820190508181036000830152612c9d81612911565b9050919050565b60006020820190508181036000830152612cbd81612934565b9050919050565b60006020820190508181036000830152612cdd81612957565b9050919050565b60006020820190508181036000830152612cfd8161297a565b9050919050565b60006020820190508181036000830152612d1d8161299d565b9050919050565b60006020820190508181036000830152612d3d816129c0565b9050919050565b60006020820190508181036000830152612d5d816129e3565b9050919050565b60006020820190508181036000830152612d7d81612a06565b9050919050565b60006020820190508181036000830152612d9d81612a29565b9050919050565b60006020820190508181036000830152612dbd81612a4c565b9050919050565b60006020820190508181036000830152612ddd81612a6f565b9050919050565b6000602082019050612df96000830184612a92565b92915050565b6000612e09612e1a565b9050612e158282613045565b919050565b6000604051905090565b600067ffffffffffffffff821115612e3f57612e3e6130d4565b5b612e4882613103565b9050602081019050919050565b600067ffffffffffffffff821115612e7057612e6f6130d4565b5b612e7982613103565b9050602081019050919050565b600081519050919050565b600081519050919050565b600082825260208201905092915050565b600082825260208201905092915050565b600081905092915050565b6000612ed482612fc7565b9150612edf83612fc7565b9250827fffffffffffffffffffffffffffffffffffffffffffffffffffffffffffffffff03821115612f1457612f13613076565b5b828201905092915050565b6000612f2a82612fc7565b9150612f3583612fc7565b925082821015612f4857612f47613076565b5b828203905092915050565b6000612f5e82612fa7565b9050919050565b60008115159050919050565b6000819050919050565b60007fffffffff0000000000000000000000000000000000000000000000000000000082169050919050565b600073ffffffffffffffffffffffffffffffffffffffff82169050919050565b6000819050919050565b82818337600083830152505050565b60005b83811015612ffe578082015181840152602081019050612fe3565b8381111561300d576000848401525b50505050565b6000600282049050600182168061302b57607f821691505b6020821081141561303f5761303e6130a5565b5b50919050565b61304e82613103565b810181811067ffffffffffffffff8211171561306d5761306c6130d4565b5b80604052505050565b7f4e487b7100000000000000000000000000000000000000000000000000000000600052601160045260246000fd5b7f4e487b7100000000000000000000000000000000000000000000000000000000600052602260045260246000fd5b7f4e487b7100000000000000000000000000000000000000000000000000000000600052604160045260246000fd5b6000601f19601f8301169050919050565b7f4552433732313a2063616c6c6572206973206e6f7420746f6b656e206f776e6560008201527f72206f7220617070726f76656400000000000000000000000000000000000000602082015250565b7f4e6f7420636f6d70617469626c65000000000000000000000000000000000000600082015250565b7f4552433732313a207472616e7366657220746f206e6f6e20455243373231526560008201527f63656976657220696d706c656d656e7465720000000000000000000000000000602082015250565b7f4f776e61626c653a206e6577206f776e657220697320746865207a65726f206160008201527f6464726573730000000000000000000000000000000000000000000000000000602082015250565b7f4552433732313a207472616e736665722066726f6d20696e636f72726563742060008201527f6f776e6572000000000000000000000000000000000000000000000000000000602082015250565b7f4552433732313a20746f6b656e20616c7265616479206d696e74656400000000600082015250565b7f4552433732313a207472616e7366657220746f20746865207a65726f2061646460008201527f7265737300000000000000000000000000000000000000000000000000000000602082015250565b7f4552433732313a20617070726f766520746f2063616c6c657200000000000000600082015250565b7f70726f7879436f6e7472616374203d3d20616464726573732830290000000000600082015250565b7f4552433732313a2061646472657373207a65726f206973206e6f74206120766160008201527f6c6964206f776e65720000000000000000000000000000000000000000000000602082015250565b7f45524337323155524953746f726167653a2055524920736574206f66206e6f6e60008201527f6578697374656e7420746f6b656e000000000000000000000000000000000000602082015250565b7f4552433732313a206d696e7420746f20746865207a65726f2061646472657373600082015250565b7f6d73672e73656e646572204572726f72203a204e6f7420486f757365436f726560008201527f2041646472657373000000000000000000000000000000000000000000000000602082015250565b7f4f776e61626c653a2063616c6c6572206973206e6f7420746865206f776e6572600082015250565b7f4552433732313a20696e76616c696420746f6b656e2049440000000000000000600082015250565b7f4552433732313a20617070726f76616c20746f2063757272656e74206f776e6560008201527f7200000000000000000000000000000000000000000000000000000000000000602082015250565b7f43616c6c6574206973206e6f74207468652070726f6a656374206f776e657221600082015250565b7f4552433732313a20617070726f76652063616c6c6572206973206e6f7420746f60008201527f6b656e206f776e6572206f7220617070726f76656420666f7220616c6c000000602082015250565b7f416c726561647920696e6974616c697a65640000000000000000000000000000600082015250565b6135a481612f53565b81146135af57600080fd5b50565b6135bb81612f65565b81146135c657600080fd5b50565b6135d281612f71565b81146135dd57600080fd5b50565b6135e981612f7b565b81146135f457600080fd5b50565b61360081612fc7565b811461360b57600080fd5b5056fea2646970667358221220e5f61f93e757b3ebaaff419ab2a1a5346734852ed8e258dd7f6efe5ca448273e64736f6c63430008040033",
  "immutableReferences": {},
  "source": "// SPDX-License-Identifier: MIT\npragma solidity 0.8.4;\n\nimport \"@openzeppelin/contracts/token/ERC721/ERC721.sol\";\nimport \"@openzeppelin/contracts/utils/Counters.sol\";\nimport \"@openzeppelin/contracts/access/Ownable.sol\";\nimport \"@openzeppelin/contracts/token/ERC721/extensions/ERC721URIStorage.sol\";\n\nimport \"./Proxiable.sol\";\n\ncontract InNFT is ERC721URIStorage, Ownable, Proxiable {\n    using Counters for Counters.Counter;\n    Counters.Counter private _tokenIds;\n    address private proxyContract;\n    address public projectOwner;\n\n    constructor() public ERC721(\"InNFT\", \"INFT\") {}\n\n    function mintNFT(address recipient, string memory tokenURI) public returns (uint256)\n    {\n        require(proxyContract != address(0), \"proxyContract == address(0)\");\n        require(\n            msg.sender == proxyContract,\n            \"msg.sender Error : Not HouseCore Address\"\n        );\n        _tokenIds.increment();\n\n        uint256 newItemId = _tokenIds.current();\n        _mint(recipient, newItemId);\n        _setTokenURI(newItemId, tokenURI);\n\n        return newItemId;\n    }\n\n    function init() public {\n        require(projectOwner == address(0), \"Already initalized\");\n        projectOwner = msg.sender;\n    }\n\n    function updateCode(address newCode) public onlyOwner {\n        updateCodeAddress(newCode);\n    }\n\n    function setContractAddress(address _proxyContract) external {\n        require(projectOwner == msg.sender, \"Callet is not the project owner!\");\n\n        proxyContract = _proxyContract;\n    }\n}",
  "sourcePath": "/Users/instant/Desktop/proxyContract_final/contracts/InNFT.sol",
  "compiler": {
    "name": "solc",
    "version": "0.8.4+commit.c7e474f2.Emscripten.clang"
  },
  "schemaVersion": "3.4.10",
  "updatedAt": "2023-02-05T06:06:54.219Z",
  "devdoc": {
    "kind": "dev",
    "methods": {
      "approve(address,uint256)": {
        "details": "See {IERC721-approve}."
      },
      "balanceOf(address)": {
        "details": "See {IERC721-balanceOf}."
      },
      "getApproved(uint256)": {
        "details": "See {IERC721-getApproved}."
      },
      "isApprovedForAll(address,address)": {
        "details": "See {IERC721-isApprovedForAll}."
      },
      "name()": {
        "details": "See {IERC721Metadata-name}."
      },
      "owner()": {
        "details": "Returns the address of the current owner."
      },
      "ownerOf(uint256)": {
        "details": "See {IERC721-ownerOf}."
      },
      "renounceOwnership()": {
        "details": "Leaves the contract without owner. It will not be possible to call `onlyOwner` functions anymore. Can only be called by the current owner. NOTE: Renouncing ownership will leave the contract without an owner, thereby removing any functionality that is only available to the owner."
      },
      "safeTransferFrom(address,address,uint256)": {
        "details": "See {IERC721-safeTransferFrom}."
      },
      "safeTransferFrom(address,address,uint256,bytes)": {
        "details": "See {IERC721-safeTransferFrom}."
      },
      "setApprovalForAll(address,bool)": {
        "details": "See {IERC721-setApprovalForAll}."
      },
      "supportsInterface(bytes4)": {
        "details": "See {IERC165-supportsInterface}."
      },
      "symbol()": {
        "details": "See {IERC721Metadata-symbol}."
      },
      "tokenURI(uint256)": {
        "details": "See {IERC721Metadata-tokenURI}."
      },
      "transferFrom(address,address,uint256)": {
        "details": "See {IERC721-transferFrom}."
      },
      "transferOwnership(address)": {
        "details": "Transfers ownership of the contract to a new account (`newOwner`). Can only be called by the current owner."
      }
    },
    "version": 1
  },
  "userdoc": {
    "kind": "user",
    "methods": {},
    "version": 1
  }
}