{
  "contractName": "Proxiable",
  "abi": [
    {
      "inputs": [],
      "name": "proxiableUUID",
      "outputs": [
        {
          "internalType": "bytes32",
          "name": "",
          "type": "bytes32"
        }
      ],
      "stateMutability": "pure",
      "type": "function"
    }
  ],
  "bytecode": "0x608060405234801561001057600080fd5b5060d88061001f6000396000f3fe6080604052348015600f57600080fd5b506004361060285760003560e01c806352d1902d14602d575b600080fd5b60336047565b604051603e9190607f565b60405180910390f35b60007f0ace2c25bb383249161e7ce2b603cc2099f18f7cefd966581720af688cca904560001b905090565b6079816098565b82525050565b6000602082019050609260008301846072565b92915050565b600081905091905056fea26469706673582212208e83ff150d76f9efdac05ce2d973babcde2fd42e7ad70dea9d02ebc6d169bc8564736f6c63430008040033",
  "immutableReferences": {},
  "source": "// SPDX-License-Identifier: MIT\npragma solidity 0.8.4;\n\ncontract Proxiable {\n    function updateCodeAddress(address newAddress) internal {\n        require(\n            bytes32(0x0ace2c25bb383249161e7ce2b603cc2099f18f7cefd966581720af688cca9045) == Proxiable(newAddress).proxiableUUID(),\n            \"Not compatible\"\n        );\n        assembly { \n            sstore(0x0ace2c25bb383249161e7ce2b603cc2099f18f7cefd966581720af688cca9045, newAddress)\n        }\n    }\n\n    function proxiableUUID() public pure returns (bytes32) {\n        return 0x0ace2c25bb383249161e7ce2b603cc2099f18f7cefd966581720af688cca9045;\n    }\n} ",
  "sourcePath": "/Users/iinsu/Desktop/inbrew/proxyContract_final/contracts/Proxiable.sol",
  "compiler": {
    "name": "solc",
    "version": "0.8.4+commit.c7e474f2.Emscripten.clang"
  },
  "schemaVersion": "3.4.11",
  "updatedAt": "2023-01-31T07:41:23.335Z",
  "devdoc": {
    "kind": "dev",
    "methods": {},
    "version": 1
  },
  "userdoc": {
    "kind": "user",
    "methods": {},
    "version": 1
  }
}